:1000000001308A0068290000FF00030E8301A1006F
:100010007F08A0000A08A7008A01A00E0408A20019
:100020007708A3007808A4007908A5007A08A6003C
:10003000831383120B1E1E288B18A7288C30840074
:10004000801E24288C1AC728220884002308F70061
:100050002408F8002508F9002608FA0027088A0075
:10006000210E8300FF0E7F0E09000A108A100A116C
:1000700082070D34CC3415344F341A34C5341B3454
:100080000E341C3401341D34CA3421340934223472
:100090008D342334493424344134293400342A340F
:1000A00087342B340B342C344E342D3447343134D4
:1000B0004D34323403343334433434344B343534F4
:1000C000CD34393402343A340D343B344A343C3480
:1000D0008534413402344234053443340A344434E0
:1000E0004534493404344A3484344B3407344C3472
:1000F000CB344D340F34553446345B34463461349C
:10010000403471340434793446347B3484347C3460
:100110004434583488347634CF345234003405347F
:10012000C73406348E3404340C340C348C34033429
:10013000CE340A108A100A1182071C34C7342434C2
:100140008E3443340C3444348C343C34CE34521C1E
:10015000C428B0080319B7283008083C031CB72886
:100160000310B20C831606168312061AB217300853
:10017000B00A203C031DC4283208523C031DC2288B
:100180005215C3285210B0018B108A112428343024
:100190003107840083138C1ECB281A08800034306A
:1001A0003107840083130008073C031DD928B001E0
:1001B000D210B10A8C128A1124285830840083137B
:1001C00000080319F1280130F800F701F70BE628C1
:1001D000F80BE5284A30F700F70BEC28EF28800BE6
:1001E000E32808001230DA02031C05295A30840083
:1001F0008313FC3080050310800C800C0008031969
:10020000052903290000800B0229080083168501B7
:100210008312330885002908D700D70AD7030319AA
:100220001529FF30DA00F2200E292808DA00F22022
:1002300083168501831285012808BC3CD7004D3008
:10024000D8002908031C290FD8025808D900D90A58
:10025000D90303192F29FF30DA00F2202829570883
:10026000DA00F220080029082D02031C4329031D8F
:100270003D2928082C02031C432906213230A807F7
:100280000318A90A33292D08A9002C08A800AF01DA
:10029000AE01AF08031D55292E08FA3C031C552951
:1002A0000621AE0A0319AF0A49292B082902031CAB
:1002B0006729031D5F292A082802031C67290621D4
:1002C0003230A8020030031C0130A9025529080071
:1002D000840183131F30830583168E15193099000E
:1002E000A6309800903083129800A901A801B001AF
:1002F000B101B201B3015214D214521107309F0060
:10030000D401D301D601D5010C30D700FA30D80082
:10031000DD20D70B86298316011383120B16831653
:100320008C16C03083128B04CF30B3000130AB0089
:10033000F430AA000530AD001430AC000C30D7000A
:10034000FA30D800DD20D70BA02986178316861334
:1003500083122B08A9002A08A80033210730AD001A
:10036000D030AC0052180D2A521DE229D401D3011D
:10037000D408031DE0295308043C031CE0290310A2
:10038000530DD700540DD800FA0057089920F800F3
:100390003202031DDC290310530DD700540DD80081
:1003A00001305707F8005808FA000318FA0A7808CD
:1003B0009920F800B3003321D30A0319D40AB829CD
:1003C00052110B2AD401D301D408031D0B2A530860
:1003D0002F3C031C0B2A0310530DD700540DD800DB
:1003E000FA00570835203202031D072A0310530D67
:1003F000D700540DD80001305707F8005808FA000C
:100400000318FA0A78083520F800B3003321D30A1C
:100410000319D40AE429B2015214D218582AD60179
:10042000D50101303102D608031D562A55020318A2
:10043000562AD401D301D408031D522A53082F3C55
:10044000031C522A0310530DD700540DD800FA0094
:1004500057083520D70034305507840083135618C9
:10046000831700085702031D4E2A0310530DD700AF
:10047000540DD80001305707F8005808FA00031847
:10048000FA0A78083520F800B30033210230D7008B
:10049000FA30D800DD20D70B482A522AD30A031994
:1004A000D40A1B2AD50A0319D60A112AB101D2147B
:0404B000B22963000A
:02400E00103F61
:00000001FF
;PIC16F628A
;CRC=A7C0  CREATED="03-feb-16 13:55"
